{
  "contractName": "FitSwap",
  "abi": [
    {
      "constant": true,
      "inputs": [
        {
          "name": "",
          "type": "address"
        }
      ],
      "name": "extra_info_list",
      "outputs": [
        {
          "name": "skills",
          "type": "string"
        },
        {
          "name": "avg_rating",
          "type": "uint256"
        },
        {
          "name": "number_of_customers",
          "type": "uint256"
        },
        {
          "name": "user_type",
          "type": "uint256"
        }
      ],
      "payable": false,
      "stateMutability": "view",
      "type": "function"
    },
    {
      "constant": true,
      "inputs": [
        {
          "name": "",
          "type": "address"
        },
        {
          "name": "",
          "type": "address"
        }
      ],
      "name": "customer_list",
      "outputs": [
        {
          "name": "email",
          "type": "string"
        },
        {
          "name": "password",
          "type": "string"
        },
        {
          "name": "fname",
          "type": "string"
        },
        {
          "name": "lname",
          "type": "string"
        },
        {
          "name": "active",
          "type": "uint256"
        }
      ],
      "payable": false,
      "stateMutability": "view",
      "type": "function"
    },
    {
      "constant": true,
      "inputs": [
        {
          "name": "",
          "type": "address"
        }
      ],
      "name": "users_list",
      "outputs": [
        {
          "name": "email",
          "type": "string"
        },
        {
          "name": "password",
          "type": "string"
        },
        {
          "name": "fname",
          "type": "string"
        },
        {
          "name": "lname",
          "type": "string"
        },
        {
          "name": "active",
          "type": "uint256"
        }
      ],
      "payable": false,
      "stateMutability": "view",
      "type": "function"
    },
    {
      "constant": true,
      "inputs": [
        {
          "name": "",
          "type": "address"
        }
      ],
      "name": "customer_address_map",
      "outputs": [
        {
          "name": "",
          "type": "address"
        }
      ],
      "payable": false,
      "stateMutability": "view",
      "type": "function"
    },
    {
      "constant": false,
      "inputs": [
        {
          "name": "fname",
          "type": "string"
        },
        {
          "name": "lname",
          "type": "string"
        },
        {
          "name": "email",
          "type": "string"
        },
        {
          "name": "password",
          "type": "string"
        },
        {
          "name": "user_type",
          "type": "uint256"
        },
        {
          "name": "skills",
          "type": "string"
        }
      ],
      "name": "register",
      "outputs": [
        {
          "name": "",
          "type": "uint256"
        }
      ],
      "payable": false,
      "stateMutability": "nonpayable",
      "type": "function"
    },
    {
      "constant": true,
      "inputs": [],
      "name": "login",
      "outputs": [
        {
          "name": "",
          "type": "address"
        },
        {
          "name": "",
          "type": "string"
        },
        {
          "name": "",
          "type": "string"
        },
        {
          "name": "",
          "type": "string"
        },
        {
          "name": "",
          "type": "string"
        },
        {
          "name": "",
          "type": "uint256"
        },
        {
          "name": "",
          "type": "uint256"
        },
        {
          "name": "",
          "type": "uint256"
        },
        {
          "name": "",
          "type": "uint256"
        },
        {
          "name": "",
          "type": "string"
        }
      ],
      "payable": false,
      "stateMutability": "view",
      "type": "function"
    },
    {
      "constant": true,
      "inputs": [
        {
          "name": "user_address",
          "type": "address"
        }
      ],
      "name": "userExists",
      "outputs": [
        {
          "name": "",
          "type": "uint256"
        }
      ],
      "payable": false,
      "stateMutability": "view",
      "type": "function"
    },
    {
      "constant": true,
      "inputs": [
        {
          "name": "user_a",
          "type": "address"
        }
      ],
      "name": "getUserFromAddress",
      "outputs": [
        {
          "components": [
            {
              "name": "email",
              "type": "string"
            },
            {
              "name": "password",
              "type": "string"
            },
            {
              "name": "fname",
              "type": "string"
            },
            {
              "name": "lname",
              "type": "string"
            },
            {
              "name": "active",
              "type": "uint256"
            }
          ],
          "name": "",
          "type": "tuple"
        }
      ],
      "payable": false,
      "stateMutability": "view",
      "type": "function"
    }
  ],
  "bytecode": "0x608060405234801561001057600080fd5b50611a4a806100206000396000f30060806040526004361061008e576000357c0100000000000000000000000000000000000000000000000000000000900463ffffffff1680630e666e49146100935780632b4d5226146100d05780637448e28f14610110578063b34e97e814610151578063c34e938314610185578063cb90a366146101c6578063cc6e740614610203578063e14f50d414610240575b600080fd5b34801561009f57600080fd5b506100ba60048036036100b591908101906114ad565b61027d565b6040516100c791906118df565b60405180910390f35b3480156100dc57600080fd5b506100f760048036036100f291908101906114ad565b6102dc565b6040516101079493929190611871565b60405180910390f35b34801561011c57600080fd5b50610137600480360361013291908101906114d6565b6103a4565b604051610148959493929190611802565b60405180910390f35b34801561015d57600080fd5b50610166610647565b60405161017c9a99989796959493929190611743565b60405180910390f35b34801561019157600080fd5b506101ac60048036036101a791908101906114ad565b610bb9565b6040516101bd959493929190611802565b60405180910390f35b3480156101d257600080fd5b506101ed60048036036101e89190810190611512565b610e4f565b6040516101fa91906118df565b60405180910390f35b34801561020f57600080fd5b5061022a600480360361022591908101906114ad565b61103c565b6040516102379190611728565b60405180910390f35b34801561024c57600080fd5b50610267600480360361026291908101906114ad565b61106f565b60405161027491906118bd565b60405180910390f35b600060016000808473ffffffffffffffffffffffffffffffffffffffff1673ffffffffffffffffffffffffffffffffffffffff1681526020019081526020016000206004015414156102d257600190506102d7565b600090505b919050565b6001602052806000526040600020600091509050806000018054600181600116156101000203166002900480601f0160208091040260200160405190810160405280929190818152602001828054600181600116156101000203166002900480156103885780601f1061035d57610100808354040283529160200191610388565b820191906000526020600020905b81548152906001019060200180831161036b57829003601f168201915b5050505050908060010154908060020154908060030154905084565b600260205281600052604060002060205280600052604060002060009150915050806000018054600181600116156101000203166002900480601f01602080910402602001604051908101604052809291908181526020018280546001816001161561010002031660029004801561045d5780601f106104325761010080835404028352916020019161045d565b820191906000526020600020905b81548152906001019060200180831161044057829003601f168201915b505050505090806001018054600181600116156101000203166002900480601f0160208091040260200160405190810160405280929190818152602001828054600181600116156101000203166002900480156104fb5780601f106104d0576101008083540402835291602001916104fb565b820191906000526020600020905b8154815290600101906020018083116104de57829003601f168201915b505050505090806002018054600181600116156101000203166002900480601f0160208091040260200160405190810160405280929190818152602001828054600181600116156101000203166002900480156105995780601f1061056e57610100808354040283529160200191610599565b820191906000526020600020905b81548152906001019060200180831161057c57829003601f168201915b505050505090806003018054600181600116156101000203166002900480601f0160208091040260200160405190810160405280929190818152602001828054600181600116156101000203166002900480156106375780601f1061060c57610100808354040283529160200191610637565b820191906000526020600020905b81548152906001019060200180831161061a57829003601f168201915b5050505050908060040154905085565b6000606080606080600080600080606061065f61135a565b6000803373ffffffffffffffffffffffffffffffffffffffff1673ffffffffffffffffffffffffffffffffffffffff16815260200190815260200160002060a06040519081016040529081600082018054600181600116156101000203166002900480601f0160208091040260200160405190810160405280929190818152602001828054600181600116156101000203166002900480156107425780601f1061071757610100808354040283529160200191610742565b820191906000526020600020905b81548152906001019060200180831161072557829003601f168201915b50505050508152602001600182018054600181600116156101000203166002900480601f0160208091040260200160405190810160405280929190818152602001828054600181600116156101000203166002900480156107e45780601f106107b9576101008083540402835291602001916107e4565b820191906000526020600020905b8154815290600101906020018083116107c757829003601f168201915b50505050508152602001600282018054600181600116156101000203166002900480601f0160208091040260200160405190810160405280929190818152602001828054600181600116156101000203166002900480156108865780601f1061085b57610100808354040283529160200191610886565b820191906000526020600020905b81548152906001019060200180831161086957829003601f168201915b50505050508152602001600382018054600181600116156101000203166002900480601f0160208091040260200160405190810160405280929190818152602001828054600181600116156101000203166002900480156109285780601f106108fd57610100808354040283529160200191610928565b820191906000526020600020905b81548152906001019060200180831161090b57829003601f168201915b50505050508152602001600482015481525050905060016000803373ffffffffffffffffffffffffffffffffffffffff1673ffffffffffffffffffffffffffffffffffffffff1681526020019081526020016000206004015414151561098d57610bac565b3381604001518260600151836000015184602001516000803373ffffffffffffffffffffffffffffffffffffffff1673ffffffffffffffffffffffffffffffffffffffff16815260200190815260200160002060040154600160003373ffffffffffffffffffffffffffffffffffffffff1673ffffffffffffffffffffffffffffffffffffffff16815260200190815260200160002060030154600160003373ffffffffffffffffffffffffffffffffffffffff1673ffffffffffffffffffffffffffffffffffffffff16815260200190815260200160002060010154600160003373ffffffffffffffffffffffffffffffffffffffff1673ffffffffffffffffffffffffffffffffffffffff16815260200190815260200160002060020154600160003373ffffffffffffffffffffffffffffffffffffffff1673ffffffffffffffffffffffffffffffffffffffff168152602001908152602001600020600001889850879750869650859550808054600181600116156101000203166002900480601f016020809104026020016040519081016040528092919081815260200182805460018160011615610100020316600290048015610b905780601f10610b6557610100808354040283529160200191610b90565b820191906000526020600020905b815481529060010190602001808311610b7357829003601f168201915b505050505090509a509a509a509a509a509a509a509a509a509a505b5090919293949596979899565b6000602052806000526040600020600091509050806000018054600181600116156101000203166002900480601f016020809104026020016040519081016040528092919081815260200182805460018160011615610100020316600290048015610c655780601f10610c3a57610100808354040283529160200191610c65565b820191906000526020600020905b815481529060010190602001808311610c4857829003601f168201915b505050505090806001018054600181600116156101000203166002900480601f016020809104026020016040519081016040528092919081815260200182805460018160011615610100020316600290048015610d035780601f10610cd857610100808354040283529160200191610d03565b820191906000526020600020905b815481529060010190602001808311610ce657829003601f168201915b505050505090806002018054600181600116156101000203166002900480601f016020809104026020016040519081016040528092919081815260200182805460018160011615610100020316600290048015610da15780601f10610d7657610100808354040283529160200191610da1565b820191906000526020600020905b815481529060010190602001808311610d8457829003601f168201915b505050505090806003018054600181600116156101000203166002900480601f016020809104026020016040519081016040528092919081815260200182805460018160011615610100020316600290048015610e3f5780601f10610e1457610100808354040283529160200191610e3f565b820191906000526020600020905b815481529060010190602001808311610e2257829003601f168201915b5050505050908060040154905085565b600060016000803373ffffffffffffffffffffffffffffffffffffffff1673ffffffffffffffffffffffffffffffffffffffff168152602001908152602001600020600401541415610ea45760009050611032565b60a06040519081016040528086815260200185815260200188815260200187815260200160018152506000803373ffffffffffffffffffffffffffffffffffffffff1673ffffffffffffffffffffffffffffffffffffffff1681526020019081526020016000206000820151816000019080519060200190610f2792919061138a565b506020820151816001019080519060200190610f4492919061138a565b506040820151816002019080519060200190610f6192919061138a565b506060820151816003019080519060200190610f7e92919061138a565b5060808201518160040155905050608060405190810160405280838152602001600081526020016000815260200184815250600160003373ffffffffffffffffffffffffffffffffffffffff1673ffffffffffffffffffffffffffffffffffffffff168152602001908152602001600020600082015181600001908051906020019061100b92919061138a565b50602082015181600101556040820151816002015560608201518160030155905050600190505b9695505050505050565b60036020528060005260406000206000915054906101000a900473ffffffffffffffffffffffffffffffffffffffff1681565b61107761135a565b6000808373ffffffffffffffffffffffffffffffffffffffff1673ffffffffffffffffffffffffffffffffffffffff16815260200190815260200160002060a06040519081016040529081600082018054600181600116156101000203166002900480601f01602080910402602001604051908101604052809291908181526020018280546001816001161561010002031660029004801561115a5780601f1061112f5761010080835404028352916020019161115a565b820191906000526020600020905b81548152906001019060200180831161113d57829003601f168201915b50505050508152602001600182018054600181600116156101000203166002900480601f0160208091040260200160405190810160405280929190818152602001828054600181600116156101000203166002900480156111fc5780601f106111d1576101008083540402835291602001916111fc565b820191906000526020600020905b8154815290600101906020018083116111df57829003601f168201915b50505050508152602001600282018054600181600116156101000203166002900480601f01602080910402602001604051908101604052809291908181526020018280546001816001161561010002031660029004801561129e5780601f106112735761010080835404028352916020019161129e565b820191906000526020600020905b81548152906001019060200180831161128157829003601f168201915b50505050508152602001600382018054600181600116156101000203166002900480601f0160208091040260200160405190810160405280929190818152602001828054600181600116156101000203166002900480156113405780601f1061131557610100808354040283529160200191611340565b820191906000526020600020905b81548152906001019060200180831161132357829003601f168201915b505050505081526020016004820154815250509050919050565b60a06040519081016040528060608152602001606081526020016060815260200160608152602001600081525090565b828054600181600116156101000203166002900490600052602060002090601f016020900481019282601f106113cb57805160ff19168380011785556113f9565b828001600101855582156113f9579182015b828111156113f85782518255916020019190600101906113dd565b5b509050611406919061140a565b5090565b61142c91905b80821115611428576000816000905550600101611410565b5090565b90565b600061143b8235611993565b905092915050565b600082601f830112151561145657600080fd5b813561146961146482611927565b6118fa565b9150808252602083016020830185838301111561148557600080fd5b6114908382846119bd565b50505092915050565b60006114a582356119b3565b905092915050565b6000602082840312156114bf57600080fd5b60006114cd8482850161142f565b91505092915050565b600080604083850312156114e957600080fd5b60006114f78582860161142f565b92505060206115088582860161142f565b9150509250929050565b60008060008060008060c0878903121561152b57600080fd5b600087013567ffffffffffffffff81111561154557600080fd5b61155189828a01611443565b965050602087013567ffffffffffffffff81111561156e57600080fd5b61157a89828a01611443565b955050604087013567ffffffffffffffff81111561159757600080fd5b6115a389828a01611443565b945050606087013567ffffffffffffffff8111156115c057600080fd5b6115cc89828a01611443565b93505060806115dd89828a01611499565b92505060a087013567ffffffffffffffff8111156115fa57600080fd5b61160689828a01611443565b9150509295509295509295565b61161c81611969565b82525050565b600061162d8261195e565b8084526116418160208601602086016119cc565b61164a816119ff565b602085010191505092915050565b600061166382611953565b8084526116778160208601602086016119cc565b611680816119ff565b602085010191505092915050565b600060a08301600083015184820360008601526116ab8282611658565b915050602083015184820360208601526116c58282611658565b915050604083015184820360408601526116df8282611658565b915050606083015184820360608601526116f98282611658565b915050608083015161170e6080860182611719565b508091505092915050565b61172281611989565b82525050565b600060208201905061173d6000830184611613565b92915050565b600061014082019050611759600083018d611613565b818103602083015261176b818c611622565b9050818103604083015261177f818b611622565b90508181036060830152611793818a611622565b905081810360808301526117a78189611622565b90506117b660a0830188611719565b6117c360c0830187611719565b6117d060e0830186611719565b6117de610100830185611719565b8181036101208301526117f18184611622565b90509b9a5050505050505050505050565b600060a082019050818103600083015261181c8188611658565b905081810360208301526118308187611658565b905081810360408301526118448186611658565b905081810360608301526118588185611658565b90506118676080830184611719565b9695505050505050565b6000608082019050818103600083015261188b8187611658565b905061189a6020830186611719565b6118a76040830185611719565b6118b46060830184611719565b95945050505050565b600060208201905081810360008301526118d7818461168e565b905092915050565b60006020820190506118f46000830184611719565b92915050565b6000604051905081810181811067ffffffffffffffff8211171561191d57600080fd5b8060405250919050565b600067ffffffffffffffff82111561193e57600080fd5b601f19601f8301169050602081019050919050565b600081519050919050565b600081519050919050565b600073ffffffffffffffffffffffffffffffffffffffff82169050919050565b6000819050919050565b600073ffffffffffffffffffffffffffffffffffffffff82169050919050565b6000819050919050565b82818337600083830152505050565b60005b838110156119ea5780820151818401526020810190506119cf565b838111156119f9576000848401525b50505050565b6000601f19601f83011690509190505600a265627a7a723058204cc86f203fff8edad2dbb1b66a58e0ad0610170aa0fc530f7f01bd9ac98c06cd6c6578706572696d656e74616cf50037",
  "source": "pragma solidity ^0.4.0;\npragma experimental ABIEncoderV2;\n\ncontract FitSwap{\n    //state variables\n    struct User {\n        string email;\n        string password;\n        string fname;\n        string lname;\n        uint active;\n    }\n    \n    struct ExtraInfo {\n        string skills;\n        uint avg_rating;\n        uint number_of_customers;\n        uint user_type;\n        \n    }\n    \n    mapping(address => User) public users_list;\n    mapping(address => ExtraInfo) public extra_info_list;\n    mapping(address => mapping(address => User)) public customer_list;\n    mapping(address => address) public customer_address_map;\n\n    function register(string fname, string lname, string email, string password, uint user_type, string skills) public returns(uint) {\n        if(users_list[msg.sender].active == 1) { \n            return 0;\n        }\n        users_list[msg.sender] = User(email, password,fname, lname,1);\n        extra_info_list[msg.sender] = ExtraInfo(skills,0,0, user_type);\n        return 1;\n    }\n\n    function login() public view returns (address,string, string, string, string, uint, uint, uint, uint, string){\n        User memory user_data = users_list[msg.sender];\n\n        if(users_list[msg.sender].active != 1){\n            return;\n        }\n        return (msg.sender,user_data.fname, user_data.lname, user_data.email, user_data.password, users_list[msg.sender].active, extra_info_list[msg.sender].user_type, extra_info_list[msg.sender].avg_rating, extra_info_list[msg.sender].number_of_customers, extra_info_list[msg.sender].skills);\n    }\n\n    function userExists(address user_address) public view returns (uint){\n        if(users_list[user_address].active == 1){\n            return 1;\n        }\n        return 0;\n    }\n\n\n    function getUserFromAddress(address user_a) public constant returns (User){\n        return (users_list[user_a]);\n    }\n\n    \n\n}\n",
  "sourcePath": "/home/adinesh/Desktop/fitswap/blockchain-awakens/contracts/FitSwap.sol",
  "compiler": {
    "name": "solc",
    "version": "0.4.24+commit.e67f0147.Emscripten.clang"
  },
  "schemaVersion": "2.0.1",
  "updatedAt": "2018-08-05T19:20:59.857Z"
}