{
  "contractName": "UserEscrow",
  "abi": [
    {
      "inputs": [],
      "payable": false,
      "stateMutability": "nonpayable",
      "type": "constructor"
    },
    {
      "constant": false,
      "inputs": [
        {
          "name": "_password",
          "type": "string"
        }
      ],
      "name": "setPassword",
      "outputs": [],
      "payable": true,
      "stateMutability": "payable",
      "type": "function"
    },
    {
      "constant": true,
      "inputs": [],
      "name": "contractBalance",
      "outputs": [
        {
          "name": "",
          "type": "uint256"
        }
      ],
      "payable": false,
      "stateMutability": "view",
      "type": "function"
    },
    {
      "constant": false,
      "inputs": [
        {
          "name": "_pass",
          "type": "string"
        }
      ],
      "name": "enterPasswordtoReleaseFunds",
      "outputs": [],
      "payable": false,
      "stateMutability": "nonpayable",
      "type": "function"
    },
    {
      "constant": false,
      "inputs": [],
      "name": "executeContract",
      "outputs": [],
      "payable": false,
      "stateMutability": "nonpayable",
      "type": "function"
    }
  ],
  "bytecode": "0x60806040526000600460006101000a81548160ff02191690831515021790555034801561002b57600080fd5b506109b58061003b6000396000f300608060405260043610610062576000357c0100000000000000000000000000000000000000000000000000000000900463ffffffff168063290bb453146100675780632ee4da54146100c35780638b7afe2e1461012c578063aedb1c8f14610157575b600080fd5b6100c1600480360381019080803590602001908201803590602001908080601f016020809104026020016040519081016040528093929190818152602001838380828437820191505050505050919291929050505061016e565b005b3480156100cf57600080fd5b5061012a600480360381019080803590602001908201803590602001908080601f0160208091040260200160405190810160405280939291908181526020018383808284378201915050505050509192919290505050610256565b005b34801561013857600080fd5b506101416102ac565b6040518082815260200191505060405180910390f35b34801561016357600080fd5b5061016c6102df565b005b600360008054905010151561018257600080fd5b60028190806001815401808255809150509060018203906000526020600020016000909192909190915090805190602001906101bf9291906108e4565b5050600034908060018154018082558091505090600182039060005260206000200160009091929091909150555060013390806001815401808255809150509060018203906000526020600020016000909192909190916101000a81548173ffffffffffffffffffffffffffffffffffffffff021916908373ffffffffffffffffffffffffffffffffffffffff1602179055505050565b600360008054905010151561026a57600080fd5b60038190806001815401808255809150509060018203906000526020600020016000909192909190915090805190602001906102a79291906108e4565b505050565b600060036000805490501015156102c257600080fd5b3073ffffffffffffffffffffffffffffffffffffffff1631905090565b60036000805490501015156102f357600080fd5b6000600181548110151561030357fe5b906000526020600020015460008081548110151561031d57fe5b90600052602060002001541415610798576003600081548110151561033e57fe5b9060005260206000200160405180828054600181600116156101000203166002900480156103a35780601f106103815761010080835404028352918201916103a3565b820191906000526020600020905b81548152906001019060200180831161038f575b5050915050604051809103902060001916600260008154811015156103c457fe5b9060005260206000200160405180828054600181600116156101000203166002900480156104295780601f10610407576101008083540402835291820191610429565b820191906000526020600020905b815481529060010190602001808311610415575b5050915050604051809103902060001916148061054f57506003600181548110151561045157fe5b9060005260206000200160405180828054600181600116156101000203166002900480156104b65780601f106104945761010080835404028352918201916104b6565b820191906000526020600020905b8154815290600101906020018083116104a2575b5050915050604051809103902060001916600260008154811015156104d757fe5b90600052602060002001604051808280546001816001161561010002031660029004801561053c5780601f1061051a57610100808354040283529182019161053c565b820191906000526020600020905b815481529060010190602001808311610528575b5050915050604051809103902060001916145b15610797576003600081548110151561056457fe5b9060005260206000200160405180828054600181600116156101000203166002900480156105c95780601f106105a75761010080835404028352918201916105c9565b820191906000526020600020905b8154815290600101906020018083116105b5575b5050915050604051809103902060001916600260018154811015156105ea57fe5b90600052602060002001604051808280546001816001161561010002031660029004801561064f5780601f1061062d57610100808354040283529182019161064f565b820191906000526020600020905b81548152906001019060200180831161063b575b5050915050604051809103902060001916148061077557506003600181548110151561067757fe5b9060005260206000200160405180828054600181600116156101000203166002900480156106dc5780601f106106ba5761010080835404028352918201916106dc565b820191906000526020600020905b8154815290600101906020018083116106c8575b5050915050604051809103902060001916600260018154811015156106fd57fe5b9060005260206000200160405180828054600181600116156101000203166002900480156107625780601f10610740576101008083540402835291820191610762565b820191906000526020600020905b81548152906001019060200180831161074e575b5050915050604051809103902060001916145b15610796576001600460006101000a81548160ff0219169083151502179055505b5b5b600460009054906101000a900460ff16156108e257600160008154811015156107bd57fe5b9060005260206000200160009054906101000a900473ffffffffffffffffffffffffffffffffffffffff1673ffffffffffffffffffffffffffffffffffffffff166108fc60008081548110151561081057fe5b90600052602060002001549081150290604051600060405180830381858888f19350505050158015610846573d6000803e3d6000fd5b5060018081548110151561085657fe5b9060005260206000200160009054906101000a900473ffffffffffffffffffffffffffffffffffffffff1673ffffffffffffffffffffffffffffffffffffffff166108fc600060018154811015156108aa57fe5b90600052602060002001549081150290604051600060405180830381858888f193505050501580156108e0573d6000803e3d6000fd5b505b565b828054600181600116156101000203166002900490600052602060002090601f016020900481019282601f1061092557805160ff1916838001178555610953565b82800160010185558215610953579182015b82811115610952578251825591602001919060010190610937565b5b5090506109609190610964565b5090565b61098691905b8082111561098257600081600090555060010161096a565b5090565b905600a165627a7a7230582004bca5536f7bc7326db33869429392632f8667e5497c089306fd78b8948509140029",
  "source": "pragma solidity ^0.4.24;\n\ncontract UserEscrow{\n    \n    uint[] ether_users;\n    address[] address_users;\n    string[] pass_set;\n    string [] pass_enter;\n    bool flag = false;\n    string sum;\n    \n    constructor() public {\n    \n    }\n    \n    function setPassword(string _password) public payable{\n        require(ether_users.length < 3);\n        pass_set.push(_password);\n        ether_users.push(msg.value);\n        address_users.push(msg.sender);\n    }\n    \n    function contractBalance() public view returns(uint){\n        require(ether_users.length<3);\n        return address(this).balance;\n    }\n    \n    function enterPasswordtoReleaseFunds(string _pass) public {\n        require(ether_users.length<3);\n        pass_enter.push(_pass);\n    }\n    \n    function executeContract() public {\n        require(ether_users.length<3);\n        \n        if (ether_users[0] == ether_users[1]){\n            if(keccak256(pass_set[0]) == keccak256(pass_enter[0]) || keccak256(pass_set[0]) == keccak256(pass_enter[1])){\n                if(keccak256(pass_set[1]) == keccak256(pass_enter[0]) || keccak256(pass_set[1]) == keccak256(pass_enter[1])){\n                    flag = true;    \n            }\n        }    \n    }\n        \n        if(flag){\n            address_users[0].transfer(ether_users[0]);\n            address_users[1].transfer(ether_users[1]);\n        }\n    \n    }\n    \n    \n}\n\n",
  "sourcePath": "/home/adinesh/Desktop/blockchain/fitswap/contracts/UserEscrow.sol",
  "compiler": {
    "name": "solc",
    "version": "0.4.24+commit.e67f0147.Emscripten.clang"
  },
  "schemaVersion": "2.0.1",
  "updatedAt": "2018-08-05T17:50:52.942Z"
}