{
  "contractName": "UserEscrow",
  "abi": [
    {
      "inputs": [],
      "payable": false,
      "stateMutability": "nonpayable",
      "type": "constructor"
    },
    {
      "constant": false,
      "inputs": [
        {
          "name": "_password",
          "type": "string"
        }
      ],
      "name": "enterPassword",
      "outputs": [],
      "payable": true,
      "stateMutability": "payable",
      "type": "function"
    },
    {
      "constant": true,
      "inputs": [],
      "name": "returnTest",
      "outputs": [
        {
          "name": "",
          "type": "uint256"
        }
      ],
      "payable": false,
      "stateMutability": "view",
      "type": "function"
    },
    {
      "constant": false,
      "inputs": [
        {
          "name": "_pass1",
          "type": "string"
        },
        {
          "name": "_pass2",
          "type": "string"
        }
      ],
      "name": "executeContract",
      "outputs": [],
      "payable": false,
      "stateMutability": "nonpayable",
      "type": "function"
    }
  ],
  "bytecode": "0x60806040526000600360006101000a81548160ff02191690831515021790555034801561002b57600080fd5b506106e38061003b6000396000f300608060405260043610610057576000357c0100000000000000000000000000000000000000000000000000000000900463ffffffff168063027f50e11461005c57806357ecc147146100b8578063e30e66b7146100e3575b600080fd5b6100b6600480360381019080803590602001908201803590602001908080601f0160208091040260200160405190810160405280939291908181526020018383808284378201915050505050509192919290505050610192565b005b3480156100c457600080fd5b506100cd610266565b6040518082815260200191505060405180910390f35b3480156100ef57600080fd5b50610190600480360381019080803590602001908201803590602001908080601f0160208091040260200160405190810160405280939291908181526020018383808284378201915050505050509192919290803590602001908201803590602001908080601f0160208091040260200160405190810160405280939291908181526020018383808284378201915050505050509192919290505050610285565b005b60028190806001815401808255809150509060018203906000526020600020016000909192909190915090805190602001906101cf929190610612565b5050600034908060018154018082558091505090600182039060005260206000200160009091929091909150555060013390806001815401808255809150509060018203906000526020600020016000909192909190916101000a81548173ffffffffffffffffffffffffffffffffffffffff021916908373ffffffffffffffffffffffffffffffffffffffff1602179055505050565b60003073ffffffffffffffffffffffffffffffffffffffff1631905090565b6000600181548110151561029557fe5b90600052602060002001546000808154811015156102af57fe5b906000526020600020015414156104c457816040518082805190602001908083835b6020831015156102f657805182526020820191506020810190506020830392506102d1565b6001836020036101000a0380198251168184511680821785525050505050509050019150506040518091039020600019166002600081548110151561033757fe5b90600052602060002001604051808280546001816001161561010002031660029004801561039c5780601f1061037a57610100808354040283529182019161039c565b820191906000526020600020905b815481529060010190602001808311610388575b505091505060405180910390206000191614156104c357806040518082805190602001908083835b6020831015156103e957805182526020820191506020810190506020830392506103c4565b6001836020036101000a0380198251168184511680821785525050505050509050019150506040518091039020600019166002600181548110151561042a57fe5b90600052602060002001604051808280546001816001161561010002031660029004801561048f5780601f1061046d57610100808354040283529182019161048f565b820191906000526020600020905b81548152906001019060200180831161047b575b505091505060405180910390206000191614156104c2576001600360006101000a81548160ff0219169083151502179055505b5b5b600360009054906101000a900460ff161561060e57600160008154811015156104e957fe5b9060005260206000200160009054906101000a900473ffffffffffffffffffffffffffffffffffffffff1673ffffffffffffffffffffffffffffffffffffffff166108fc60008081548110151561053c57fe5b90600052602060002001549081150290604051600060405180830381858888f19350505050158015610572573d6000803e3d6000fd5b5060018081548110151561058257fe5b9060005260206000200160009054906101000a900473ffffffffffffffffffffffffffffffffffffffff1673ffffffffffffffffffffffffffffffffffffffff166108fc600060018154811015156105d657fe5b90600052602060002001549081150290604051600060405180830381858888f1935050505015801561060c573d6000803e3d6000fd5b505b5050565b828054600181600116156101000203166002900490600052602060002090601f016020900481019282601f1061065357805160ff1916838001178555610681565b82800160010185558215610681579182015b82811115610680578251825591602001919060010190610665565b5b50905061068e9190610692565b5090565b6106b491905b808211156106b0576000816000905550600101610698565b5090565b905600a165627a7a7230582068cd8f32aef112fe976986cdc9cbd3e916df143fa508f58252dc36052097364c0029",
  "source": "pragma solidity ^0.4.24;\n\ncontract UserEscrow{\n    \n    uint[] ether_users;\n    address[] address_users;\n    string[] password_users;\n    bool flag = false;\n    string sum;\n    \n    constructor() public {\n    \n    }\n    \n    /*function() public payable{x\n        \n    }*/\n    \n    function enterPassword(string _password) public payable{\n        password_users.push(_password);\n        ether_users.push(msg.value);\n        address_users.push(msg.sender);\n    }\n    \n    function returnTest() public view returns(uint){\n        \n        return address(this).balance;\n    }\n    \n    function executeContract(string _pass1, string _pass2) public {\n        \n        if (ether_users[0] == ether_users[1]){\n            if(keccak256(password_users[0]) == keccak256(_pass1)){\n                if(keccak256(password_users[1]) == keccak256(_pass2)){\n                    flag = true;\n                }\n            }\n        }\n        \n        if(flag){\n            address_users[0].transfer(ether_users[0]);\n            address_users[1].transfer(ether_users[1]);\n        }\n    \n    }\n    \n    \n}\n",
  "sourcePath": "/home/adinesh/Desktop/fitswap/blockchain-awakens/contracts/UserEscrow.sol",
  "compiler": {
    "name": "solc",
    "version": "0.4.24+commit.e67f0147.Emscripten.clang"
  },
  "schemaVersion": "2.0.1",
  "updatedAt": "2018-08-05T19:20:59.860Z"
}