{
  "contractName": "WakeUp",
  "abi": [
    {
      "constant": true,
      "inputs": [],
      "name": "owner",
      "outputs": [
        {
          "name": "",
          "type": "address"
        }
      ],
      "payable": false,
      "stateMutability": "view",
      "type": "function"
    },
    {
      "constant": false,
      "inputs": [
        {
          "name": "newOwner",
          "type": "address"
        }
      ],
      "name": "transferOwnership",
      "outputs": [],
      "payable": false,
      "stateMutability": "nonpayable",
      "type": "function"
    },
    {
      "inputs": [],
      "payable": true,
      "stateMutability": "payable",
      "type": "constructor"
    },
    {
      "anonymous": false,
      "inputs": [
        {
          "indexed": true,
          "name": "previousOwner",
          "type": "address"
        },
        {
          "indexed": true,
          "name": "newOwner",
          "type": "address"
        }
      ],
      "name": "OwnershipTransferred",
      "type": "event"
    },
    {
      "constant": false,
      "inputs": [
        {
          "name": "_alarm",
          "type": "uint256"
        }
      ],
      "name": "setAlarm",
      "outputs": [],
      "payable": false,
      "stateMutability": "nonpayable",
      "type": "function"
    },
    {
      "constant": false,
      "inputs": [
        {
          "name": "_pass",
          "type": "string"
        }
      ],
      "name": "setPassword",
      "outputs": [],
      "payable": false,
      "stateMutability": "nonpayable",
      "type": "function"
    },
    {
      "constant": false,
      "inputs": [
        {
          "name": "_pass",
          "type": "string"
        }
      ],
      "name": "enterPassword",
      "outputs": [],
      "payable": false,
      "stateMutability": "nonpayable",
      "type": "function"
    },
    {
      "constant": true,
      "inputs": [],
      "name": "Return_Balance_In_Contract",
      "outputs": [
        {
          "name": "",
          "type": "uint256"
        }
      ],
      "payable": false,
      "stateMutability": "view",
      "type": "function"
    }
  ],
  "bytecode": "0x6080604052336000806101000a81548173ffffffffffffffffffffffffffffffffffffffff021916908373ffffffffffffffffffffffffffffffffffffffff1602179055504260038190555033600160006101000a81548173ffffffffffffffffffffffffffffffffffffffff021916908373ffffffffffffffffffffffffffffffffffffffff1602179055506107438061009b6000396000f300608060405260043610610078576000357c0100000000000000000000000000000000000000000000000000000000900463ffffffff168063027f50e11461007d5780631993b0ef146100e6578063290bb453146101115780638da5cb5b1461017a578063d913a7f8146101d1578063f2fde38b146101fe575b600080fd5b34801561008957600080fd5b506100e4600480360381019080803590602001908201803590602001908080601f0160208091040260200160405190810160405280939291908181526020018383808284378201915050505050509192919290505050610241565b005b3480156100f257600080fd5b506100fb6103f5565b6040518082815260200191505060405180910390f35b34801561011d57600080fd5b50610178600480360381019080803590602001908201803590602001908080601f0160208091040260200160405190810160405280939291908181526020018383808284378201915050505050509192919290505050610414565b005b34801561018657600080fd5b5061018f610489565b604051808273ffffffffffffffffffffffffffffffffffffffff1673ffffffffffffffffffffffffffffffffffffffff16815260200191505060405180910390f35b3480156101dd57600080fd5b506101fc600480360381019080803590602001909291905050506104ae565b005b34801561020a57600080fd5b5061023f600480360381019080803573ffffffffffffffffffffffffffffffffffffffff16906020019092919050505061051d565b005b6000809054906101000a900473ffffffffffffffffffffffffffffffffffffffff1673ffffffffffffffffffffffffffffffffffffffff163373ffffffffffffffffffffffffffffffffffffffff1614151561029c57600080fd5b600454421115156103f25761025860045403421015156103f157806040518082805190602001908083835b6020831015156102ec57805182526020820191506020810190506020830392506102c7565b6001836020036101000a0380198251168184511680821785525050505050509050019150506040518091039020600190046002604051808280546001816001161561010002031660029004801561037a5780601f1061035857610100808354040283529182019161037a565b820191906000526020600020905b815481529060010190602001808311610366575b505091505060405180910390206001900414156103f0573373ffffffffffffffffffffffffffffffffffffffff166108fc3073ffffffffffffffffffffffffffffffffffffffff16319081150290604051600060405180830381858888f193505050501580156103ee573d6000803e3d6000fd5b505b5b5b50565b60003073ffffffffffffffffffffffffffffffffffffffff1631905090565b6000809054906101000a900473ffffffffffffffffffffffffffffffffffffffff1673ffffffffffffffffffffffffffffffffffffffff163373ffffffffffffffffffffffffffffffffffffffff1614151561046f57600080fd5b8060029080519060200190610485929190610672565b5050565b6000809054906101000a900473ffffffffffffffffffffffffffffffffffffffff1681565b6000809054906101000a900473ffffffffffffffffffffffffffffffffffffffff1673ffffffffffffffffffffffffffffffffffffffff163373ffffffffffffffffffffffffffffffffffffffff1614151561050957600080fd5b603c80820202905080420160048190555050565b6000809054906101000a900473ffffffffffffffffffffffffffffffffffffffff1673ffffffffffffffffffffffffffffffffffffffff163373ffffffffffffffffffffffffffffffffffffffff1614151561057857600080fd5b600073ffffffffffffffffffffffffffffffffffffffff168173ffffffffffffffffffffffffffffffffffffffff16141515156105b457600080fd5b8073ffffffffffffffffffffffffffffffffffffffff166000809054906101000a900473ffffffffffffffffffffffffffffffffffffffff1673ffffffffffffffffffffffffffffffffffffffff167f8be0079c531659141344cd1fd0a4f28419497f9722a3daafe3b4186f6b6457e060405160405180910390a3806000806101000a81548173ffffffffffffffffffffffffffffffffffffffff021916908373ffffffffffffffffffffffffffffffffffffffff16021790555050565b828054600181600116156101000203166002900490600052602060002090601f016020900481019282601f106106b357805160ff19168380011785556106e1565b828001600101855582156106e1579182015b828111156106e05782518255916020019190600101906106c5565b5b5090506106ee91906106f2565b5090565b61071491905b808211156107105760008160009055506001016106f8565b5090565b905600a165627a7a72305820abb4a8688aea68725ab20b477419df8ba02245ca847cac21ae5a4bae6812afae0029",
  "source": "pragma solidity ^0.4.0;\n\nimport \"./Ownable.sol\";\nimport \"./SafeMath.sol\";\n\ncontract WakeUp is Ownable{\n    \n    using SafeMath for uint256;\n    \n    address owner;\n    string password;\n    uint current_time;\n    uint alarm;\n    \n    constructor() public payable{\n        \n        current_time = now;\n        owner = msg.sender;\n    }\n    \n    function setAlarm(uint _alarm) public onlyOwner{\n    \n        _alarm = _alarm * 60 * 60;\n        alarm = now + _alarm;\n    }\n    \n    function setPassword(string _pass) public onlyOwner{\n        \n        password = _pass;\n    }\n    \n    /*function getAlarm() public view returns(uint) {\n       return alarm;\n    }\n    \n    /*function getPassword() internal view returns (string) {\n        return password;\n    }\n    */\n    \n    function enterPassword(string _pass) public onlyOwner\n    {\n        \n        if (now <= alarm) \n        {\n            if(now >= (alarm - 600))\n            {\n                if ( uint(keccak256(password)) == uint(keccak256(_pass)))\n                {\n                    msg.sender.transfer(address(this).balance);    \n                }\n            }\n        }\n    }\n    \n    function Return_Balance_In_Contract() public view returns(uint256){\n        \n        return address(this).balance;\n    }\n    \n}\n",
  "sourcePath": "/home/adinesh/Desktop/fitswap/blockchain-awakens/contracts/WakeUp.sol",
  "compiler": {
    "name": "solc",
    "version": "0.4.24+commit.e67f0147.Emscripten.clang"
  },
  "schemaVersion": "2.0.1",
  "updatedAt": "2018-08-05T19:20:27.000Z"
}