{
  "contractName": "weightPool",
  "abi": [
    {
      "inputs": [],
      "payable": false,
      "stateMutability": "nonpayable",
      "type": "constructor"
    },
    {
      "payable": true,
      "stateMutability": "payable",
      "type": "fallback"
    },
    {
      "constant": false,
      "inputs": [
        {
          "name": "_currentweight",
          "type": "uint256"
        },
        {
          "name": "_goalweight",
          "type": "uint256"
        }
      ],
      "name": "setWeights",
      "outputs": [],
      "payable": true,
      "stateMutability": "payable",
      "type": "function"
    },
    {
      "constant": false,
      "inputs": [
        {
          "name": "_weight",
          "type": "uint256"
        }
      ],
      "name": "enterFinalWeight",
      "outputs": [],
      "payable": false,
      "stateMutability": "nonpayable",
      "type": "function"
    },
    {
      "constant": false,
      "inputs": [],
      "name": "distributeFunds",
      "outputs": [],
      "payable": false,
      "stateMutability": "nonpayable",
      "type": "function"
    },
    {
      "constant": true,
      "inputs": [],
      "name": "returnBalance",
      "outputs": [
        {
          "name": "",
          "type": "uint256"
        }
      ],
      "payable": false,
      "stateMutability": "view",
      "type": "function"
    }
  ],
  "bytecode": "0x6080604052600060025534801561001557600080fd5b5033600360006101000a81548173ffffffffffffffffffffffffffffffffffffffff021916908373ffffffffffffffffffffffffffffffffffffffff1602179055506105d5806100666000396000f300608060405260043610610062576000357c0100000000000000000000000000000000000000000000000000000000900463ffffffff1680633a6a4d2e14610064578063750e12a91461007b578063900551a8146100a8578063ef6ffef2146100d3575b005b34801561007057600080fd5b506100796100fd565b005b34801561008757600080fd5b506100a6600480360381019080803590602001909291905050506103af565b005b3480156100b457600080fd5b506100bd6104a8565b6040518082815260200191505060405180910390f35b6100fb60048036038101908080359060200190929190803590602001909291905050506104c7565b005b600080600091505b6004805490508210156101f057600160048381548110151561012357fe5b90600052602060002090600502016003015414156101e35760048281548110151561014a57fe5b906000526020600020906005020160000160009054906101000a900473ffffffffffffffffffffffffffffffffffffffff1673ffffffffffffffffffffffffffffffffffffffff166108fc6004848154811015156101a457fe5b9060005260206000209060050201600401549081150290604051600060405180830381858888f193505050501580156101e1573d6000803e3d6000fd5b505b8180600101925050610105565b3073ffffffffffffffffffffffffffffffffffffffff1631605360643073ffffffffffffffffffffffffffffffffffffffff16310281151561022e57fe5b0403600181905550600360009054906101000a900473ffffffffffffffffffffffffffffffffffffffff1673ffffffffffffffffffffffffffffffffffffffff166108fc6001549081150290604051600060405180830381858888f193505050501580156102a0573d6000803e3d6000fd5b5060006002541415156103ab576002543073ffffffffffffffffffffffffffffffffffffffff16318115156102d157fe5b04600081905550600090505b6004805490508110156103aa5760016004828154811015156102fb57fe5b906000526020600020906005020160030154141561039d5760048181548110151561032257fe5b906000526020600020906005020160000160009054906101000a900473ffffffffffffffffffffffffffffffffffffffff1673ffffffffffffffffffffffffffffffffffffffff166108fc6000549081150290604051600060405180830381858888f1935050505015801561039b573d6000803e3d6000fd5b505b80806001019150506102dd565b5b5050565b60008090505b6004805490508110156104a4573373ffffffffffffffffffffffffffffffffffffffff166004828154811015156103e857fe5b906000526020600020906005020160000160009054906101000a900473ffffffffffffffffffffffffffffffffffffffff1673ffffffffffffffffffffffffffffffffffffffff161415610497578160048281548110151561044657fe5b906000526020600020906005020160020154141561049657600160048281548110151561046f57fe5b90600052602060002090600502016003018190555060016002600082825401925050819055505b5b80806001019150506103b5565b5050565b60003073ffffffffffffffffffffffffffffffffffffffff1631905090565b600460a0604051908101604052803373ffffffffffffffffffffffffffffffffffffffff16815260200184815260200183815260200160008152602001348152509080600181540180825580915050906001820390600052602060002090600502016000909192909190915060008201518160000160006101000a81548173ffffffffffffffffffffffffffffffffffffffff021916908373ffffffffffffffffffffffffffffffffffffffff1602179055506020820151816001015560408201518160020155606082015181600301556080820151816004015550505050505600a165627a7a723058207a8ff3f2e0cfa617fa762540069a63eff00345ee10891f45090470a63ae3df5e0029",
  "source": "pragma solidity ^0.4.24;\n\ncontract weightPool{\n    \n    uint x;\n    uint commision;\n    uint count = 0;\n    address Ninja;  \n    \n    struct User{\n    address user;\n    uint current_weight;\n    uint goal_weight;\n    uint flag;\n    uint val;\n    }\n    \n    User[] users;\n    \n    constructor() public{\n        Ninja = msg.sender;\n    }\n    \n    function () public payable{\n        \n    }\n    \n    function setWeights(uint _currentweight, uint _goalweight) public payable{\n        users.push(User(msg.sender,_currentweight,_goalweight,0,(msg.value)));\n    }\n    \n    /*\n    function get() public view returns(uint){\n        return users[1].current_weight;\n    }\n    \n    function get1() public view returns(uint){\n        return users[1].goal_weight;\n    }\n    \n    function get2() public view returns(address){\n        return users[0].flag;\n    }\n    */\n    \n    function enterFinalWeight(uint _weight) public{\n        for(uint i=0; i<users.length; i++)\n        {\n            if (users[i].user == msg.sender)\n            {\n                    if (users[i].goal_weight == _weight)\n                    {\n                        users[i].flag = 1;\n                        count += 1;\n                    }\n            }\n        }\n    }\n\n    function distributeFunds() public\n    {\n        \n    for (uint k=0; k<users.length;k++){\n        if (users[k].flag == 1){\n            (users[k].user).transfer(users[k].val);\n        }\n    }\n    \n     commision = (((address(this).balance) * 100)/83)-(address(this).balance);\n     Ninja.transfer(commision);\n     \n      if (count !=0)\n        {\n            x = (address(this).balance/count);\n            for(uint j=0; j<users.length; j++)\n                {\n                    if (users[j].flag == 1)\n                        {\n                            (users[j].user).transfer(x);\n                        }\n                }\n        }\n    }\n     \n    function returnBalance() public view returns(uint){\n        \n        return address(this).balance;\n    }\n}",
  "sourcePath": "/home/adinesh/Desktop/fitswap/blockchain-awakens/contracts/WeightPool.sol",
  "compiler": {
    "name": "solc",
    "version": "0.4.24+commit.e67f0147.Emscripten.clang"
  },
  "schemaVersion": "2.0.1",
  "updatedAt": "2018-08-05T19:20:27.002Z"
}